:020000040800F2
:10000000F8B800209D01000851120008810F000877
:100010004D1200084B0400081533000800000000D2
:10002000000000000000000000000000D1150008E2
:10003000ED0D000800000000211300080117000862
:10004000B7010008B7010008B7010008B7010008B0
:10005000B7010008B7010008EF0D0008B70100085C
:10006000B7010008B7010008B7010008B701000890
:10007000B7010008B7010008B7010008B701000880
:10008000B7010008B7010008B7010008B701000870
:10009000B7010008B7010008B7010008B701000860
:1000A000B7010008B7010008B7010008B701000850
:1000B000B7010008B7010008B7010008B701000840
:1000C000B7010008B7010008B7010008B701000830
:1000D000B7010008B7010008B7010008B701000820
:1000E000B7010008B7010008F1120008B7010008C5
:1000F000B7010008B7010008B7010008B701000800
:10010000B7010008B7010008B7010008B7010008EF
:10011000B7010008B7010008B7010008B7010008DF
:10012000B7010008B7010008B7010008B7010008CF
:10013000B7010008B7010008B7010008B7010008BF
:10014000B7010008B7010008B7010008E112000874
:10015000B7010008B7010008B7010008B70100089F
:10016000B7010008B7010008B7010008B70100088F
:10017000B7010008B7010008B7010008B70100087F
:10018000B7010008B7010008DFF80CD000F0FEF856
:10019000004800472D670008F8B80020064880474F
:1001A00006480047FEE7FEE7FEE7FEE7FEE7FEE75C
:1001B000FEE7FEE7FEE7FEE71D17000889010008DD
:1001C0002DE9F04100242546002905DA0124002705
:1001D000D0EB070067EB0101002B05DA0027D2EB1B
:1001E0000702012567EB030300F09EF886460E46E2
:1001F00017469C46AC4204D00025D0EB050E65EBBB
:10020000010624B10020D2EB000760EB030C70461E
:1002100031463A466346BDE8F08140EA01039B0758
:1002200003D009E008C9121F08C0042AFAD203E06B
:1002300011F8013B00F8013B521EF9D27047D2B2CF
:1002400001E000F8012B491EFBD270470022F6E7BF
:1002500010B513460A4604461946FFF7F0FF20463C
:1002600010BD30B505462A460B4612F8010B13F8AF
:10027000014B08B1A042F8D01CB1002802D06D1C7F
:10028000F1E7284630BDCAB2401E10F8011F8A426D
:1002900002D00029F9D100207047421C10F8011B40
:1002A0000029FBD1801A704710B5002200E0521CD3
:1002B000835C8C5CA34201D1002BF8D1D8B2E1B2AF
:1002C000401A10BD30B504460020034600E05B1C18
:1002D000934203D2E05CCD5C401BF8D030BD30B51A
:1002E00005460020034600E05B1C934205D2EC5C0F
:1002F000C85C201A01D1002CF6D130BD30B50B46B8
:10030000014600202022012409E021FA02F59D4245
:1003100005D303FA02F5491B04FA02F52844151E19
:10032000A2F10102F1DC30BD2DE9F05F05460020AD
:1003300092469B4688460646814640241BE0284656
:1003400041464746224600F042F853465A46C01AF4
:10035000914110D311461846224600F029F82D1A73
:1003600067EB01084F4622460120002100F020F8EB
:1003700017EB00094E41201EA4F10104DFDC4846C2
:1003800031462A464346BDE8F09F0000064C074D23
:1003900006E0E06840F0010394E807009847103455
:1003A000AC42F6D3FFF7F4FED0530108F053010836
:1003B000202A04DB203A00FA02F100207047914025
:1003C000C2F1200320FA03F3194390407047202A1A
:1003D00004DB203A21FA02F00021704721FA02F3EF
:1003E000D040C2F12002914008431946704770B5D1
:1003F00001EB020410F8015B15F0070301D110F8BE
:10040000013B2A1106D110F8012B03E010F8016B13
:1004100001F8016B5B1EF9D12B0705D40023521E96
:100420000FD401F8013BFAE710F8013B02F1020298
:10043000A1EB030303E013F8015B01F8015B521E1B
:10044000F9D5A142D6D3002070BD00BFFEE770B53C
:1004500006460C4604F08000802808D104F07F0096
:1004600000EB800106F58E7000EBC10507E004F09B
:100470007F0000EB800106F55D7000EBC10504F024
:100480007F00287004F08000C0096870294630465B
:1004900002F0D6FB002070BD70B506460C4604F095
:1004A0008000802808D104F07F0000EB800106F571
:1004B0008E7000EBC10505E004EB840106F55D706C
:1004C00000EBC1050020A87004F07F002870C4F381
:1004D000C01068702946304602F08AFB002070BDCB
:1004E0002DE9F04106460D4690461F4605F0800076
:1004F000802808D105F07F0000EB800106F58E70A2
:1005000000EBC10407E005F07F0000EB800106F579
:100510005D7000EBC10405F07F00207005F08000E5
:10052000C0096070C4F80880E770607808B120786E
:10053000E080022F01D1002020712146304602F0D8
:100540000BFB0020BDE8F0812DE9F04105460E4689
:100550001746984606F07F0000EB800105F55D70B8
:1005600000EBC104E760C4F814800020A061607053
:1005700006F07F002070E878012800D127612078FC
:1005800020B92146284602F00BFA03E0214628460E
:1005900002F0B7FB0020BDE8F08108B50022009210
:1005A000009A61F30A12009202691268009B1A43D2
:1005B00003691A6008BD70B506460C4604F0800059
:1005C000802808D104F07F0000EB800106F58E70D2
:1005D00000EBC10505E004EB840106F55D7000EB5E
:1005E000C1050120A87004F07F002870C4F3C0107A
:1005F00068702946304602F052FB002070BD2DE99C
:10060000F04107460D461646984605F07F0000EB80
:10061000800107F58E7000EBC1040120607005F0C9
:100620007F002070E66026610020A061C4F814807D
:10063000207820B92146384602F0B2F903E021467D
:10064000384602F05EFB0020BDE8F0811CB5044690
:10065000204602F070F9E068C0680090204602F081
:1006600021FD03280BD10020A0704FF40070A08062
:10067000009820F4705000F51050009009E001201F
:10068000A0704020A080009820F4705000F5A05089
:1006900000900098E168C86000200190019820F463
:1006A000005000F5005001900198E1684861012078
:1006B0001CBD0000F8B50546002400200090284627
:1006C00002F02FFD06468FE016F0010F7ED0E1B25A
:1006D000284600F019FB0090009810F0010F26D07A
:1006E000012000FA04F72869406BB8432969486380
:1006F00000200090009820F00100401C009005F1BF
:10070000180050F8240000998160E1B2394800686F
:10071000426828469047E878012808D13CB940F261
:100720001110405D042802D1284602F0E4F9009837
:10073000C0F3C00060B100200090009820F00800D5
:100740000830009005F1180050F8240000998160ED
:100750000098C0F3001060B100200090009820F0D5
:1007600010001030009005F1180050F82400009996
:1007700081600098C0F3801060B100200090009864
:1007800020F040004030009005F1180050F824009F
:10079000009981600098C0F3400060B10020009093
:1007A000009820F00200801C009005F1180050F81D
:1007B0002400009981600098C0F3C01030B1214638
:1007C000284600F0CBFA0020009000E00AE00098F4
:1007D00020F080008030009005F1180050F82400CF
:1007E00000998160641C7608002E7FF46DAF0120B3
:1007F000F8BD00006C0100207CB5044600250020F7
:100800000190204602F095FC06466EE016F0010FBE
:1008100069D0E9B2204602F094FC0190019810F0F2
:10082000010F39D000200190019820F00100401CF8
:10083000019004F1540050F8250001998160E0789E
:10084000012817D104F1540050F8250000690090E8
:1008500005EB850104F55D7000EBC100806800992F
:10086000C1F31201411A05EB850204F55D7000EB3E
:10087000C2008161E9B21F480068026820469047C3
:10088000E078012808D13DB940F21110005D05283B
:1008900002D1204602F02FF90198C0F3400060B168
:1008A00000200190019820F00200801C019004F1CA
:1008B000540050F82500019981600198C0F3C000F0
:1008C00088B10C4800688168204688470020019064
:1008D000019820F008000830019004F1540050F80D
:1008E0002500019981606D1C7608002E8ED10120B3
:1008F0007CBD00006C0100203EB50446A07A70B1BA
:10090000D4F80C010090009820F0020000900098AC
:1009100020F0010000900099D4F80C010160002043
:100920000190019820F00100401C0190206940686E
:100930000199884321694860084800688169204618
:10094000884700200290029820F0004000F100400B
:1009500002900298E168486101203EBD6C010020D0
:100960007CB5044600200190019820F01000103062
:100970000190E068806901998843E1688861E068D6
:10098000006A0090009800F00F0000EB800104F571
:100990005D7000EBC1050098C0F3434007282DD2DD
:1009A000DFE800F02C04051D1E2C1F0027E0009836
:1009B000C0F30A1090B10098C0F30A122046E9680B
:1009C00002F0C9FBE8680099C1F30A110844E86025
:1009D000A8690099C1F30A110844A8610FE00EE06C
:1009E0000DE0082204F2CC51204602F0B4FBA869C5
:1009F0000099C1F30A110844A86100E000BF00BFDC
:100A0000E068806901990843E168886101207CBD44
:100A100038B5044608480068C16820468847002069
:100A20000090009820F00800083000900098E168DD
:100A30004861012038BD00006C0100201FB504464C
:100A4000002000904FF48970005D009023480068FA
:100A50004169204688472069806801900020039002
:100A6000039820F4006000F5006003900398E168AB
:100A70004861A07A70B3019810F0010F2AD040F2BB
:100A80001510005D012825D19DF80000032821D113
:100A900000200290029820F00100401C0290D4F83F
:100AA0000C01006802990843D4F80C110860029800
:100AB00020F00200801C0290D4F80C01006802991A
:100AC0000843D4F80C1108600548006840F006009F
:100AD00003490860012004B010BD00006C01002033
:100AE00010ED00E030B587B004460020029006907B
:100AF0000590049003900190029820F00100401CA2
:100B00000290206940680299884321694860002169
:100B1000204602F09DFA00250BE0FF2104F11800A9
:100B200050F82500816004F1540050F825008160E0
:100B30006D1C6078A842F0D84FF0FF3120698161C8
:100B400006986FF30F00401C0690069880B200F5DF
:100B50008030069006992069C161059820F0080050
:100B600008300590059820F00100401C059005987C
:100B700020F00200801C05900599206941610498CD
:100B800020F00100401C0490049820F00800083078
:100B90000490049820F00200801C049004992069BD
:100BA0000161206900680390039820F4FE600390BF
:100BB000039920690160204601F09DFF002001900B
:100BC000019820F4805000F5805001900198E16870
:100BD000486104480068016920468847012007B041
:100BE00030BD00006C0100202DE9F04106460F46A3
:100BF0003946304602F0C4FA01214FF4897081551C
:100C00000021801C8155002511E005EB850106F5CA
:100C10008E7000EBC104012060702570E58000201B
:100C2000E0704020A0600020E06060616D1C707882
:100C3000A842EAD8002510E005EB850106F55D70B5
:100C400000EBC104002060702570E580E07040205A
:100C5000A0600020E06060616D1C7078A842EBD855
:100C6000304601F057FE304601F08AFC0021304644
:100C700002F0EEFA304601F010FD304602F0B0F915
:100C8000BDE8F08138B504460020009007480068B0
:100C9000C16920468847009820F4801000F5801034
:100CA00000900098E1684861012038BD6C01002087
:100CB00038B504460020009007480068016A2046C5
:100CC0008847009820F4001000F50010009000986C
:100CD000E1684861012038BD6C01002038B5044648
:100CE000E068406800900098C0F3800020B105489B
:100CF0000068816A204688470098E16848600120C2
:100D000038BD00006C01002030B5024615692B6922
:100D100015696C6B24FA01F505F0010543EAC5136A
:100D200002F1180555F82150AD6805EA030030BD01
:100D300038B5044608480068416A204688470020C4
:100D40000090009820F0804000F1804000900098D2
:100D5000E1684861012038BD6C0100202DE9F843AD
:100D600007460E4600250020009006EB860107F599
:100D70008E7000EBC104D4E90501451AA068A842B1
:100D800000D2A568E81C4FEA900807F1180050F857
:100D90002600806900901BE0D4E90501451AA0688F
:100DA000A84200D2A568E81C4FEA9008ABB2F2B2A4
:100DB0003846E16802F08EFAE0682844E060A069F5
:100DC0002844A06107F1180050F8260080690090BF
:100DD000009880B2404506D9D4E90510884202D275
:100DE00060690028D8D10120BDE8F88370477047BA
:100DF0000149086070470000143C0140002123496C
:100E00008279002A3AD00A46126803689A430B4650
:100E10001A600A1D126803689A430B1D1A60027952
:100E200011440A6803681A430A60184A08321268B3
:100E300003689A43154B08331A601A1D1268036839
:100E40009A43124B0C331A604279102A0ED11A1FA2
:100E5000126803681A430D4B08331A601A1D126892
:100E600003681A43094B0C331A600DE007494279B5
:100E700011440A6803681A430A6005E002791144C4
:100E80000A6803689A430A6070470000003C01400A
:100E9000F0B50A4600210023002400BF3DE00125F3
:100EA00005FA01F3156805EA03049C4234D105688C
:100EB0004F000326BE40B543056015794E00B5408E
:100EC0000668354305601579012D02D01579022D8C
:100ED00016D185684F000326BE40B543856055791D
:100EE0004E00B540866835438560456801268E40D2
:100EF000B5434560456896798E40B6B23543456046
:100F0000C5684F000326BE40B543C560D5794E0085
:100F1000B540C6683543C560491C1029BFD3F0BD34
:100F2000F0B5002300244D07ED0E02FA05F3CE10B4
:100F300000F1200555F826504E07F70E0F26BE404B
:100F4000B543CF1000F1200646F82750CE1000F12F
:100F5000200555F8265045EA0304CE1000F120057F
:100F600045F82640F0BD0246002013690B4201D02F
:100F7000012000E0002070474183704701837047E3
:100F800000BFFEE738B504460020009000F010F8DE
:100F9000607821780843E178084321790843A178F3
:100FA0000843009001222021684600F02FF938BD47
:100FB00000B587B00121080300F0E4F901210846DB
:100FC00000F0B0F90121102000F0ACF9012110204F
:100FD00000F0A8F90121102000F0A4F90522114623
:100FE0003D48FFF79DFF052206213B48FFF798FF8C
:100FF000052207213848FFF793FF02208DF81800DB
:1010000000208DF81A0002208DF81B008DF81900C1
:101010002020059005A93048FFF73AFF8020059071
:1010200005A92D48FFF734FF4020059005A92A485F
:10103000FFF72EFF294800F0D1F90020ADF800009D
:10104000ADF80400ADF80600ADF808004FF40070EC
:10105000ADF80A000820ADF80C000020ADF80E0035
:101060000720ADF810004FF48270ADF80200694619
:101070001A4800F0EDF90121184800F0A3F9082002
:10108000059001208DF8180000208DF81A0002202C
:101090008DF8190005A91248FFF7FAFE082110483B
:1010A000FFF76CFF0120059000208DF818008DF8E7
:1010B0001A0002208DF8190000208DF81B0005A9E8
:1010C0000748FFF7E5FE0220059005A90448FFF751
:1010D000DFFE07B000BD000000000240003001400C
:1010E0000010024070B506460C461546012D02DD83
:1010F00044F0C00401E044F0800408210A48FFF7EE
:101100003BFF204600F04AF806E0002000F046F8D9
:101110003070681E85B2761C002DF6DC082102486E
:10112000FFF72CFF70BD0000001002403EB50546E1
:101130000024012220216846FFF7D4FF062229213E
:1011400001A8FFF7CFFF9DF8000010F0200002D0AB
:10115000202820D10FE000240AE001A911F8140092
:1011600040B200EBC000400028602D1D601CC4B2DE
:10117000032CF2DB10E000240AE001A911F81400AE
:1011800040B200EBC000C00028602D1D601CC4B23E
:10119000032CF2DB00E000BF00BF3EBD10B50446EB
:1011A0004FF480501649086007E015490868411E51
:1011B000134A116008B900F027F80221114800F025
:1011C00039F90028F1D021460E4800F03FF94FF4DC
:1011D00080500B49086007E009490868411E084A29
:1011E000116008B900F010F80121064800F022F95A
:1011F0000028F1D0034800F026F9C0B210BD00006D
:10120000100100200030014000BFFEE770B5054628
:101210000E461446012C01DD46F0400608210A481E
:10122000FFF7AAFE3046FFF7B9FF05E02878FFF781
:10123000B5FF601E84B26D1C012CF7DA082102484C
:10124000FFF79CFE70BD00000010024000BFFEE7EB
:101250007047000070B5002100230F22C47824B32A
:10126000174C246804F4E064C4F5E064C4F3072177
:10127000C1F10404E3B20A4144789C40E1B28478AD
:10128000144021430C07210E0E4C0578615504785B
:1012900004F01F050124AC4005786D114FF0E026E5
:1012A00006EB8505C5F8004109E0047804F01F0449
:1012B0000125A540044C0678761144F8265070BDEF
:1012C0000CED00E000E400E080E100E002490143B1
:1012D000024A1160704700000000FA050CED00E0C2
:1012E00010B5024800F01AFD10BD0000FC080020F7
:1012F00010B50948807A50B10848006820F006000F
:101300000649086000F00AFA034801F0C8FF4FF4EC
:101310008020FFF76DFD10BDFC08002010ED00E0FF
:101320007047000029B1064A12680243044B1A6054
:1013300004E0034A12688243014B1A6070470000C0
:101340003038024029B1064A12680243044B1A6041
:1013500004E0034A12688243014B1A6070470000A0
:101360003438024029B1064A12680243044B1A601D
:1013700004E0034A12688243014B1A607047000080
:101380002038024029B1064A12680243044B1A6011
:1013900004E0034A12688243014B1A607047000060
:1013A0004438024029B1064A12680243044B1A60CD
:1013B00004E0034A12688243014B1A607047000040
:1013C0002438024021B1028842F04002028004E049
:1013D00002884FF6BF731A400280704710B504466A
:1013E0001148844208D101218014FFF7DBFF00215E
:1013F000A014FFF7D7FF16E00C48844208D1012162
:101400000014FFF7AFFF00212014FFF7ABFF0AE045
:101410000748844207D10121C013FFF7A3FF002131
:10142000E013FFF79FFF10BD00300140003800407F
:10143000003C00400246002013890B4201D00120ED
:1014400000E000207047014688897047818170471D
:1014500010B50022028802F441520B884C882343C5
:101460008C882343CC8823430C8923434C89234312
:101470008C892343CC8923431A430280838B4FF208
:10148000FF74234083830B8A038210BD1CB504467E
:101490000E4951F824000121FFF744FF0C4830F8B1
:1014A0001400009001208DF8040000208DF8060043
:1014B00001208DF8070002208DF80500054951F83C
:1014C00024006946FFF7E4FC1CBD000038C1000899
:1014D00030C10008F8000020034931F81010034A19
:1014E00052F820205183704730C10008F8000020D6
:1014F000034931F81010034A52F820201183704735
:1015000030C10008F800002010B50446044A32F843
:101510001410044A52F82400FFF725FD10BD000006
:1015200048C100080801002030B585B004460D46CA
:10153000204951F824000121FFF7F4FE012188031E
:10154000FFF720FF00208DF810008DF813001A48D7
:1015500030F814000390194951F8240003A9FFF74B
:1015600097FC012D24D1164A115D164A105D00F03A
:1015700031F8154830F81400019000208DF808006B
:1015800008208DF8090001208DF80A0001A8FFF756
:1015900035FC0E48005D8DF800000F208DF801002D
:1015A0008DF8020001208DF803006846FFF752FE17
:1015B00005B030BD4CC1000848C10008080100203A
:1015C00053C1000852C1000850C1000854C10008AE
:1015D0007047000030B500228B071C0F0F2303FA61
:1015E00004F20B4B8C1053F824309343084C8D10AD
:1015F00044F8253023468C1053F824308C07240FF0
:1016000000FA04F42343024C8D1044F8253030BD19
:10161000083801400CB50020019000903448006863
:1016200040F480303249086000BF3148006800F45F
:10163000003000900198401C0190009818B9019862
:10164000B0F5C06FF1D12A48006810F4003F02D015
:101650000120009001E0002000900098012845D171
:1016600023484030006840F08050214940310860F4
:101670002048006840F440401E4908601C4808307B
:1016800000681B49083108600846006840F40040C3
:1016900008600846006840F4A05008601648091F1A
:1016A0000860081F006840F08070091F086000BFD4
:1016B0000F48006810F0007FFAD040F205600F4933
:1016C00008600B480830006820F003000849083122
:1016D00008600846006840F00200086000BF044847
:1016E0000830006800F00C000828F8D10CBD00009C
:1016F000003802400070004008484006003C0240AC
:101700000548036840684FF47A729A1840F1000067
:1017100001490A6048607047D800002010B515489C
:10172000006840F47000134908601348006840F0F6
:1017300001001149086000200F49083108600E4877
:1017400000680E4908400C4908600D48091D0860F2
:10175000081F006820F48020091F08600020064947
:101760000C310860FFF756FF4FF0006001498039E7
:10177000086010BD88ED00E000380240FFFFF6FE73
:101780001030002470B504460D46D4F8E40529460F
:10179000426820469047002070BD70B504460D4653
:1017A0004FF48970005D022802D0032812D100E0B6
:1017B00000BF688801280CD100214FF48C700151C2
:1017C000D4F8E4052946826820469047204600F078
:1017D00075F804E02946204600F021F800BF00BF5C
:1017E00070BD2DE9F04106460C46154600272B46F4
:1017F000224600213046FEF7A7FE3846BDE8F081BC
:101800002DE9F04106460C46154600272B46224698
:1018100000213046FEF7F3FE3846BDE8F08170B592
:1018200004460D4680212046FEF7C5FE00212046D5
:10183000FEF7C1FE204601F05EF970BD2DE9F041D2
:1018400004460E4615460027C4F89453C4F8905336
:10185000032140F2111001552B463246002120464B
:10186000FEF772FE3846BDE8F08170B504460025EB
:10187000052140F21110015500231A461946204651
:10188000FEF762FE204601F036F9284670BD2DE9CC
:10189000F04104460E4615460027C4F83C51C4F8F2
:1018A0003851022140F2111001552B4632460021D9
:1018B0002046FEF7A4FE3846BDE8F08170B5044628
:1018C0000025042140F21110015500231A46194643
:1018D0002046FEF794FE204601F00DF9284670BD23
:1018E00070B505460E46002E51D105F58E7440F2B6
:1018F0001110405D02283DD1A168E069884211D9EC
:10190000A168E069401AE061E878012803D1D4E9D0
:1019100002100844E060A08B82B22846E168FFF71D
:101920006FFF27E0A168206AB0FBF1F201FB120013
:1019300078B9A168206A88420BD3D4E908018842AB
:1019400007D2002211462846FFF75AFF00206062A6
:1019500010E0D5F8E405C06848B14FF48970405DE7
:10196000032804D1D5F8E405C168284688472846ED
:10197000FFF77BFF4FF48B70405D012816D128469E
:1019800000F098FA00214FF48B7041550EE0D5F825
:10199000E405406950B14FF48970405D032805D1DA
:1019A000D5F8E4053146426928469047002070BDCD
:1019B00070B505460E46A6BB05F55D7440F21110E4
:1019C000405D03283DD1A168E069884217D9A1682C
:1019D000E069401AE061E878012803D1D4E90210F7
:1019E0000844E060A368E069984201D2E06900E041
:1019F000A06882B22846E168FFF7F3FE21E0D5F83F
:101A0000E405006948B14FF48970405D032804D1B2
:101A1000D5F8E4050169284688472846FFF74EFFB8
:101A20000FE0FFE7D5F8E405806950B14FF4897005
:101A3000405D032805D1D5F8E40531468269284682
:101A40009047002070BD01460020704710B5044645
:101A5000D4F8E81548698047012140F21510015576
:101A6000002010BD10B50446D4F8E81588698047F9
:101A7000D4F8E4050021426820469047002140F256
:101A800015100155002010BD70B504460D46E888BC
:101A9000012804D029462046FFF7C1FE1AE04FF482
:101AA0008970005D022802D003280DD105E00122D3
:101AB00009492046FFF7EBFE0BE0012204F588718F
:101AC0002046FFF7E4FE04E029462046FFF7A7FE84
:101AD00000BF00BF70BD000034010020F8B504460F
:101AE0000E467088001208286CD2DFE800F06B0404
:101AF00016226B6B6166A078D4F8EC150A6869460B
:101B000090470546F088402804D04FF48970005D66
:101B1000012801D10820009059E0A078D4F8E415FC
:101B20008A6A69469047054602216970C4F8F055F3
:101B30004DE0B078062834D2DFE800F0030B131B29
:101B4000232BA078D4F8EC154A68694690470546DF
:101B50002CE0A078D4F8EC158A68694690470546D1
:101B600024E0A078D4F8EC15CA6869469047054689
:101B70001CE0A078D4F8EC150A6969469047054640
:101B800014E0A078D4F8EC154A69694690470546F8
:101B90000CE0A078D4F8EC158A69694690470546B0
:101BA00004E031462046FFF73AFEF8BD00BF0EE0E4
:101BB00031462046FFF733FEF7E731462046FFF770
:101BC0002EFEF2E731462046FFF729FEEDE700BF83
:101BD000BDF8000088B1F08878B1F088BDF8001039
:101BE000884202DDBDF8000000E0F0880090BDF8FA
:101BF000002029462046FFF74AFE00BFD5E70146F0
:101C0000002002E0421CD0B2491C0A78002AF9D117
:101C10007047000070B504460D464FF48970005DB2
:101C2000022802D0032813D100E000BF01200C4994
:101C300008604FF48C70005920B10846006840F0ED
:101C400002000860022206492046FFF720FE04E059
:101C500029462046FFF7E3FD00BF00BF70BD00002E
:101C6000380100202DE9F04104460D4617460026B4
:101C7000FCB12046FFF7C3FF022101EB4000388092
:101C80003A783046711CCEB22A5403223046711C79
:101C9000CEB22A540AE014F8012B3046711CCEB2A1
:101CA0002A5400223046711CCEB22A5420780028D3
:101CB000F1D1BDE8F0812DE9F04104460F4615460B
:101CC0001E46DDF81880204600F004FC2046FFF791
:101CD000BAFEC4F8E465C4F8E885C4F8EC553946A2
:101CE0002046FEF781FFD4F8E815086880472046B3
:101CF00000F0DAFBBDE8F08110B50446D4F8E40545
:101D0000016A20468847002010BD10B50446D4F86B
:101D1000E405416A20468847002010BD7CB5054691
:101D20000024284601F0EAF9002875D0284601F081
:101D3000F0F90190019808B900207CBD0198C0F32A
:101D4000C04018B12846FEF757FD04430198C0F380
:101D5000804018B12846FEF7ADFC04430198C0F35B
:101D6000400050B100200090009820F00200801C3C
:101D700000900098E968486100BF0198C00F03D047
:101D80002846FEF7B9FD04430198C0F3C02018B1FE
:101D90002846FEF753FE04430198C0F3C00018B173
:101DA0002846FEF735FE04430198C0F3001018B131
:101DB0002846FEF7D5FD04430198C0F3003018B162
:101DC0002846FEF78FFE04430198C0F3403018B157
:101DD0002846FEF73BFC04430198C0F3005018B1BD
:101DE0002846FEF74FFF04430198C0F3405018B156
:101DF0002846FEF75DFF04430198C0F3807018B1D8
:101E00002846FEF795FF04430198C0F3800018B1FF
:101E10002846FEF763FF044320468EE790F8CC2562
:101E20000A7090F8CD254A7090F8CE3590F8CF25FD
:101E300003EB02224A8090F8D03590F8D12503EBCD
:101E400002228A8090F8D23590F8D32503EB022243
:101E5000CA80CB884FF4A0721350012340F21112B4
:101E60001354704710B504460023402219462046FB
:101E7000FEF736FB0023402280212046FEF730FB90
:101E800001214FF489700155A078D4F8E8255168F4
:101E90008847002010BD10B50446D4F8E81508693D
:101EA000804740F21310015D401E0155032101558A
:101EB000002010BD01460348026808694260002006
:101EC000704700007001002010B50446D4F8E40506
:101ED000C06920B1D4F8E405C169204688470020D4
:101EE00010BD70B504460D46A88818BBE88808BB2D
:101EF000A87800F07F064FF48970005D032804D1B4
:101F000029462046FFF78BFC18E04FF48A700655EF
:101F100031462046FEF741FB2046FFF7CFFC26B1B5
:101F200002214FF48970015508E001214FF48970B6
:101F3000015503E029462046FFF771FC70BD70B5DE
:101F400004460D46D4F8E405294602682046904729
:101F5000D4F8E81588688047002070BD70B5044645
:101F60000D46A8783049087008460078012804DD3D
:101F700029462046FFF753FC55E04FF48970005D79
:101F8000022802D0032848D117E02748007880B102
:101F90002548007884F8100103214FF48970015519
:101FA000214801782046FFF7CAFF2046FFF786FC4C
:101FB00002E02046FFF782FC34E01B48007880B93D
:101FC00002214FF4897001551748007884F81001F8
:101FD000154801782046FFF7D5FB2046FFF76EFC39
:101FE0001AE094F8100110490978884211D094F849
:101FF00010112046FFF7C6FB0B48007884F810014B
:10200000094801782046FFF79AFF2046FFF756FC63
:1020100002E02046FFF752FC04E029462046FFF785
:10202000FEFB00BF00BF70BD3C010020F8B50446B8
:102030000D460026688801280DD101214FF48C70CF
:102040000151D4F8E405294682682046904720468D
:10205000FFF734FC39E06888022836D12879A0BB24
:10206000206940680090A8880612062E22D2DFE878
:1020700006F02103090F151B009820F070001030A6
:10208000009017E0009820F070002030009011E0E0
:10209000009820F07000303000900BE0009820F0A5
:1020A00070004030009005E0009820F07000503043
:1020B000009000BF00BF05480099016001214FF466
:1020C0008B7001552046FFF7F9FBF8BD7001002029
:1020D0001CB5044669462046FFF7A0FE9DF80000A7
:1020E00010F01F0004D0012807D002280FD109E00A
:1020F0006946204600F016F811E06946204600F0D7
:10210000F9F80CE06946204600F046F807E09DF833
:10211000000000F080012046FEF74DFA00BF00BF2E
:1021200000201CBD70B505460C46002660780A28C4
:1021300029D2DFE800F01923281E280A0528140FE9
:1021400021462846FFF7CAFC22E021462846FFF731
:10215000C8FE1DE021462846FFF700FF18E0214693
:102160002846FFF791FC13E021462846FFF752FD71
:102170000EE021462846FFF759FF09E02146284690
:10218000FFF70BFB04E021462846FFF748FB00BFA2
:1021900000BF304670BD00002DE9F04105460E46F7
:1021A000002734797078002857D001282BD00328D5
:1021B00075D14FF48970405D022802D003281BD1ED
:1021C00007E02CB1802C03D021462846FEF7F3F916
:1021D00017E0708830B92CB1802C03D021462846F6
:1021E000FEF7E9F9D5F8E4053146826828469047BC
:1021F0002846FFF763FB04E031462846FFF70FFB54
:1022000000BF00BF70E04FF48970405D022802D02B
:1022100003281BD107E02CB1802C03D0214628468F
:10222000FEF7C9F917E0708878B95CB1802C09D045
:1022300021462846FEF730F9D5F8E4053146826894
:10224000284690472846FFF739FB04E031462846E8
:10225000FFF7E5FA00BF00BF46E04FF48970405D2C
:10226000022802D0032837D107E02CB1802C03D0FC
:1022700021462846FEF79FF933E004F080008028CD
:1022800012D104F07F0000EB800105F58E7000EBA9
:10229000C100807820B101201549086016E022E0D5
:1022A00000201349086011E014F0800F0ED104EBF8
:1022B000840105F55D7000EBC100807818B1012044
:1022C0000B49086002E00020094908600222084921
:1022D0002846FFF7DCFA04E031462846FFF79FFA6C
:1022E00000BF00BF00E000BF00BF3846BDE8F0817E
:1022F0003001002070B504460D4600264FF4897069
:10230000005D032814D1287901280CDCD4F8E405F9
:102310002946826820469047E88840B93EB9204661
:10232000FFF7CCFA03E029462046FFF778FA04E0ED
:1023300029462046FFF773FA00BF00BF304670BD44
:1023400010B504464FF48970015D401C015504210D
:10235000401E0155D4F8E815C8688047002010BD1C
:1023600070B505460C462DB92246064906A0FFF772
:1023700079FC04E02246034903A0FFF773FC0148FF
:1023800070BD00000A150020524E44495320436F8F
:102390006E666967000000007047704702461220B1
:1023A0000880014870470000C40200207047704751
:1023B000704770477047000070B505460C462DB950
:1023C0002246064906A0FFF74DFC04E022460349D9
:1023D00003A0FFF747FC014870BD00000A1500206C
:1023E000524E44495320496E7465726661636500BC
:1023F000024604200880014870470000E0020020E7
:1024000070B505460C462246024903A0FFF72AFC98
:10241000004870BD0A15002046657469736F762008
:10242000536572676579000070B505460C462DB995
:102430002246064906A0FFF715FC04E022460349A0
:1024400003A0FFF70FFC014870BD00000A15002033
:1024500053544D3332463420524E44495300000009
:1024600070B505460C462DB92246064906A0FFF771
:10247000F9FB04E02246034907A0FFF7F3FB0148FC
:1024800070BD00000A150020303030303030303060
:1024900031323342000000003030303030303030E4
:1024A000313233430000000038B504464FF4C060B9
:1024B000FEF70CFF43208DF8000001208DF801008D
:1024C00003208DF8020001208DF803006846FEF716
:1024D000C1FE38BD1CB5044601210846FEF722FFA7
:1024E0004FF4C050009003208DF8050002208DF8B5
:1024F000040000208DF806008DF807006946154895
:10250000FEF7C6FC0A220B211248FEF709FD0A223B
:102510000C211048FEF704FD4FF48060009001206C
:102520008DF806008DF8070003208DF80500694638
:102530000848FEF7ADFC0A2211460648FEF7F0FCFB
:1025400001218803FEF71EFF01218020FEF7FAFE1D
:102550001CBD00000000024010B504464FF47A7123
:1025600004FB01F000F001F810BD0022C0EB0013E5
:10257000D90000BF531C1A468B4200D97047F9E7B7
:102580003EB5044600250020029001900090207A7C
:1025900001283DD1E068806B0190019820F48030E3
:1025A0000190607A28B1019820F4801000F5801025
:1025B00001900198E168886300200290E068C0689B
:1025C0000290029820F040000290029820F48000CF
:1025D0000290029820F400300290029820F400202B
:1025E00002900298E168C860204600F05DF9E0784A
:1025F00001283DD1009820F01E000A30009000987C
:1026000020F02000203000900098E16888602FE0E2
:10261000E068C0680290029820F0400040300290CC
:102620000298E168C860204600F03EF90020019061
:10263000019820F4803000F580300190019820F45A
:10264000802000F580200190019820F4002000F502
:1026500000200190607A28B1019820F4801000F5E4
:10266000801001900198E16888631420FFF774FFDF
:10267000E07801280FD1E06880680090009820F091
:102680001E000A300090009820F0200020300090BA
:102690000098E168886028463EBD70B588B0044661
:1026A00000260020079006900590049003900021DA
:1026B000D4F80C010160206900680690069820F4A7
:1026C000C0500690069920690160E07A01283FD148
:1026D0000321204600F006FD8020E168486205984D
:1026E00080B200F58000059005986FF30F008030F0
:1026F00005900598E1688862059800EB1041049800
:1027000061F30F000490049880B200F580000490FB
:102710000498E168C1F80401049800EB104161F3EA
:102720000F000490049880B200F580000490049992
:10273000E068C0F80811049800EB104161F30F0045
:102740000490049880B204900499E068C0F80C11D9
:102750001021204600F07CFC204600F053FC0021B4
:102760002069016120694161491E20698161002160
:102770002069C16100252CE004F1180050F8250003
:10278000006807900798C00F0ED0002007900798A8
:1027900020F0804000F180400790079820F0006012
:1027A00000F10060079001E00020079004F118009C
:1027B00050F8250007990160002104F1180050F835
:1027C00025000161FF2104F1180050F82500816007
:1027D0006D1C6078A842CFD800252CE004F154008D
:1027E00050F82500006801900198C00F0ED000201D
:1027F0000190019820F0804000F180400190019804
:1028000020F0006000F10060019001E000200190E4
:1028100004F1540050F8250001990160002104F1F1
:10282000540050F825000161FF2104F1540050F8D4
:10283000250081606D1C6078A842CFD800200390ED
:10284000039820F4807000F580700390206900697F
:1028500003998843084321690861E07801281DD164
:1028600000200290029820F00100401C0290029883
:1028700020F00200801C02904021029861F38A003F
:102880000290029820F4803000F580300290029887
:1028900061F359400290029920690163204600F0DB
:1028A00047FB304608B070BDF8B504460026002549
:1028B0000020009000BF0320FFF757FEE06800698A
:1028C0000090681C05461249884201D90020F8BDD5
:1028D0000098C00FEFD00025009820F00100401CA8
:1028E00000900098E168086100BFE068006900900E
:1028F000681C05460649884200D903E0009810F09C
:10290000010FF2D100BF0320FFF72FFE3046DEE7B4
:10291000400D030008B50146002000220092009AF5
:1029200022F00102521C0092CA689268009B9A43EE
:10293000CB689A6008BD0EB50146002000220092C7
:102940000A69926802928A6912680192029AC2F335
:10295000410232B1012A05D0022A09D0032A0DD141
:1029600001E000BF00BF019A6FF30A02019205E087
:10297000019A6FF30A02D21C019200BF00BF019BB3
:102980008A691360009A22F4807202F580720092C4
:102990000A695268009B9A431A430B695A600EBD3C
:1029A000FEB50246002000240025029500954D78D2
:1029B000012D52D193691D6802951D6900954D69DD
:1029C00055B9009D25F07F050095009D25F4C015A3
:1029D00005F50025009516E08E684D69B54207D9CA
:1029E0008D684D610E7A009D66F30605009504E042
:1029F0000E7D009D66F306050095009D25F4C0152B
:102A000005F500250095009D1D61D578012D06D1A5
:102A10000F7802F1180555F827500E696E61029D76
:102A200025F0806505F180650295029D25F0004541
:102A300005F100450295029D1D60D578002D59D104
:102A40004D69002D56D00E780125B5402C431569EF
:102A50006D6B2543166975634CE00E7802F15405E1
:102A600055F826502D6802950E7802F1540555F858
:102A700026502D6900954D695DB90E7A009D66F36B
:102A800006050095009D25F4C01505F50025009567
:102A90000CE08D684D610E7A009D66F30605009589
:102AA000009D25F4C01505F5002500950F7802F16D
:102AB000540555F82750009E2E61D578012D06D17A
:102AC0000F7802F1540555F827500E696E61029D8A
:102AD00025F0806505F180650295029D25F0004591
:102AE00005F1004502950F7802F1540555F827507D
:102AF000029E2E60FEBD0EB500210191019921F0CC
:102B00004041A1F180410191019921F4C01101F5E9
:102B100000210191019921F07F0118310191019A61
:102B2000416D0A61C178012915D10021009100F29F
:102B3000CC51426D5161416D09680091009921F0BD
:102B4000004101F1004100914FF080210091009A75
:102B5000416D0A6000BF0EBD3CB502460020002456
:102B6000019400944C78012C0CD10D7802F11804DA
:102B700054F825300D780124AC40009D64F30F0516
:102B800000950BE00D7802F1540454F825300D78CF
:102B90000124AC40009D64F31F4500951C6801941E
:102BA000019CC4F3C034E4B90D89019C65F30A04A7
:102BB0000194CD78019C65F3934401948D79019C37
:102BC00065F399540194019C24F0805404F18054DD
:102BD0000194019C24F4004404F500440194019CF8
:102BE0001C601469E469009D2C431569EC613CBDCF
:102BF00038B503460020002400944C78012C05D100
:102C00000D7803F1180454F8252004E00D7803F141
:102C1000540454F8252014680094009C24F40014F3
:102C20000094CC78032C02D0CC78022C05D1009CE7
:102C300024F0805404F180540094009C146038BD4A
:102C40003CB5024600200024019400944C78012CED
:102C50000CD10D7802F1180454F825300D780124B8
:102C6000AC40009D64F30F0500950BE00D7802F178
:102C7000540454F825300D780124AC40009D64F3D1
:102C80001F450095019C24F400440194019C1C60A4
:102C90001469E469009DAC431569EC613CBD38B52D
:102CA00003460A460020002400945478012C18D1D1
:102CB000157803F1180454F825100C680094009C52
:102CC000E40F05D0009C24F0804404F1804400947B
:102CD000009C24F4001404F500140094009C0C6083
:102CE0000EE0157803F1540454F825100C68009494
:102CF000009C24F4001404F500140094009C0C6063
:102D000038BDFEB505460C4600260027002002907F
:102D10000190607801287ED1217805F1180050F8E3
:102D2000210000680290217805F1180050F8210078
:102D300000690190606948B901986FF31200019031
:102D40000121019861F3DC40019017E0616901986D
:102D500061F3120001906069401EA1680844B0FB55
:102D6000F1F1019861F3DC400190E078012805D190
:102D7000019820F0C04000F100500190227805F148
:102D8000180050F8220001990161E878012807D164
:102D9000227805F1180050F82200216941610DE008
:102DA000E07801280AD0606940B12178012000FA5A
:102DB00001F72869406B384329694863E0780128A6
:102DC00015D12869806800900098C0F30D2010F09C
:102DD000010F06D1029820F0005000F1005002903F
:102DE00005E0029820F0805000F180500290029897
:102DF00020F0806000F180600290029820F0004096
:102E000000F100400290227805F1180050F82200ED
:102E10000299016000E00AE0E07801286CD1A08A04
:102E200083B222782846E16800F054FA64E0217801
:102E300005F1540050F8210000680290217805F156
:102E4000540050F8210000690190606950B9A168F0
:102E5000019861F3120001900121019861F3DC40B7
:102E6000019013E0A068401E61690844A168B0FBAE
:102E7000F1F1019861F3DC4001900198C0F3C94081
:102E8000A1684843019960F312010191227805F18C
:102E9000540050F8220001990161E878012806D118
:102EA000227805F1540050F8220021694161E07850
:102EB00001280ED1607930B1029820F0005000F165
:102EC0000050029005E0029820F0805000F1805000
:102ED0000290029820F0806000F1806002900298D9
:102EE00020F0004000F100400290227805F15400EB
:102EF00050F82200029901603046FEBD08B500215D
:102F00000091491EC26851606FF08041C2685161F2
:102F1000009921F0004101F100410091009921F454
:102F2000006101F5006100910099C268916108BDDE
:102F300038B50446002500200090E16888616FF0F4
:102F40008040E16848612046FFF7D8FFE07820B96B
:102F5000009820F0100010300090009820F40060DD
:102F600000F500600090009820F4805000F580503B
:102F70000090009820F4005000F500500090009858
:102F800020F4802000F580200090009820F400209C
:102F900000F500200090009820F008000830009014
:102FA000009820F4801000F580100090009820F424
:102FB000001000F500100090009820F0804000F113
:102FC00080400090009820F00400001D0090E06810
:102FD0008069009988430843E1688861284638BDC4
:102FE00008B50146002000220092009A22F001025A
:102FF000521C0092CA689268009B1A43CB689A6080
:1030000008BD0000F8B50446002500260020009009
:10301000009820F01000103000900098E1680861DE
:1030200000BFE06800690090701C064607498842AE
:1030300000D904E00098C0F300100028F1D100BFCF
:103040000320FFF792FA2846F8BD0000400D030068
:10305000F8B504460D460026002700200090009891
:1030600020F0200020300090009865F38A10009036
:103070000098E168086100BFE06800690090781C72
:1030800007460749884200D904E00098C0F3401081
:103090000028F1D100BF0320FFF767FA3046F8BDE2
:1030A000400D030008B5014600200A6992680092AD
:1030B000009AC2F3410232B1012A06D0022A07D097
:1030C000032A07D102E0032004E000BF022001E050
:1030D000012000BF00BF08BD0146C868406900F07C
:1030E0000100704708B5026912680092009A61F306
:1030F00001020092009B0269136008BD00B5024600
:103100001046FFF7E9FF012801D0012000BD002093
:10311000FCE701460020CA685069CA6892691040FD
:1031200070470146086982690869C069024090B227
:1031300070470146086982690869C0690240100C3D
:103140007047024602F1540353F82130986813691E
:103150005B6918407047F0B503460024D01CC717C0
:1031600000EB9777BD10D3F8D06000BF03E0306864
:103170000860641C091DAC42F9D30846F0BD00008C
:1031800070B502460C46002300200025D5700125AD
:10319000957040259580012C0CD14FF0A04301255E
:1031A000D57208251570042555709D15D58002250A
:1031B00015720AE04CB9254B0025D5720C25157007
:1031C000062555704FF4A065D580D36003F50065E2
:1031D0001561002110E003F5106505EB411602F1C1
:1031E000180545F8216003F5306505EB411602F13D
:1031F000540545F82160491C55788D42EBD803F5FC
:10320000806555614035C2F8CC50002108E003F5D7
:10321000A06505EB411602F1900545F82160491CB7
:1032200015788D42F3D8002108E003F5805505EBB1
:10323000013602F1D00545F82160491C15788D4210
:10324000F3D803F56065C2F80C5170BD000004406E
:10325000F8B504460D460026E068C0680090009866
:1032600020F000500090009820F080400090012D48
:1032700006D1009820F0005000F10050009006E0C8
:103280002DB9009820F0804000F180400090009817
:10329000E168C8603220FFF75FF93046F8BD0CB531
:1032A000817AB1B1016989680191019911F0010F29
:1032B0000ED0D0F80C110091009921F0020100917C
:1032C000009921F001010091009AD0F80C110A60D8
:1032D00000BF0CBD2DE9F04104460026E078B0B9EE
:1032E00000270020DD1C4FEAE57805EB98784FEACF
:1032F000A80704F1D00555F822C000BF04E00D680E
:10330000CCF80050401C091DB842F8D300BF30462D
:10331000BDE8F08100BFFEE70FB41CB50A46521E9F
:10332000CDE9000207A9054B6A46069800F018F897
:10333000009A002111701CBC5DF814FBAB3600082C
:1033400002E008C8121F08C1002AFAD1704770476E
:10335000002001E001C1121F002AFBD170470000CC
:103360002DE9FF4F8BB088460546002667E12528EA
:103370007AD100246D1CB649A146A24601222B78C1
:10338000203B02FA03F0084202D004436D1CF6E72A
:1033900028782A2810D06FF02F022878A0F1300169
:1033A000092915D809EB890102EB410144F0020417
:1033B00000EB01096D1CF0E758F8049BB9F1000F10
:1033C00003DA44F40054C9F1000944F002046D1C0E
:1033D00028782E2817D115F8010F44F004042A2864
:1033E0000ED06FF02F022878A0F1300109290AD8F9
:1033F0000AEB8A0102EB410100EB010A6D1CF2E7C6
:1034000058F804AB6D1C28786C280FD006DC4C28CB
:1034100017D068280DD06A2814D104E0742810D081
:103420007A280FD10DE044F400140AE044F480142B
:1034300001E044F440146978814202D16D1C04F526
:1034400080146D1C2878692866D007DC002876D0A7
:10345000632828D0642807D15EE005E06E2808D0F4
:1034600073282AD075287AD0DDE90D129047761C92
:10347000E4E0C4F30250022809D003280DD0D8F8A4
:10348000001004280DD00E6008F10408D6E0D8F82A
:103490000010F217C1E90062F6E7D8F800100E80BC
:1034A000F2E70E70F0E718F8041B8DF8001000200A
:1034B0008DF80100EB46012003E058F804BB4FF003
:1034C000FF3061074FF0000701D40AE07F1C574529
:1034D0000DDA8742FADB1BF807100029F6D106E067
:1034E0007F1C8742FCDB1BF807100029F8D1DDE9BF
:1034F0000D23A9EB07008146214600F0BEF83044B9
:10350000C61904E0DDE90D121BF8010B90477F1E80
:10351000F8D2214648468CE058F8040BC4F3025117
:103520004FF00A0B032900D100B2042900D140B2A8
:10353000002806DAC0F100004FF02D0104E082E01F
:103540000DE0210504D52B218DF82410012103E085
:10355000E10710D02021F7E708AF089114E058F8F0
:10356000040BC4F302514FF00A0B032900D180B2BF
:10357000042900D1C0B20021EEE75946FCF7BEFE97
:1035800001F1300107F8011D0028F6D1ADEB07006D
:1035900000F1200B600702D524F4803401E04FF0E5
:1035A000010ADA4502DDAAEB0B0000E000208246AA
:1035B00000EB0B0108980144A9EB01000A90E0031D
:1035C00006D4DDE90D2321460A9800F056F806449A
:1035D000002008E009A911F80900DDE90D12904763
:1035E000761C09F10100089981468842F2DBE0036C
:1035F0000CD5DDE90D2321460A9800F03EF806447B
:1036000004E0DDE90D1230209047761CBAF100018C
:10361000AAF1010AF5DC05E0DDE90D1217F8010B4E
:103620009047761CBBF10001ABF1010BF4DC0A986A
:103630002146DDE90D2300F00DF806446D1C2878C5
:1036400000287FF494AE0FB03046BDE8F08F000044
:10365000092801002DE9F041044600251E461746C1
:10366000880405D406E039462020B04705F101055D
:10367000641EF8D52846BDE8F0812DE9F0410446E6
:1036800000251E469046C80301D5302700E02027BC
:10369000880405D506E041463846B04705F10105E6
:1036A000641EF8D52846BDE8F0814A68002A06D095
:1036B0000A68531C0B6010704868401E48607047D1
:1036C00010B5044600F078FD0022034941F288302D
:1036D00004F062FB10BD0000C13600082DE9F04186
:1036E00080460F4615461E46002430E055F824005B
:1036F00028A1FCF7D9FD48B956F8240000783128F4
:1037000001D1012000E000202349087055F8240071
:1037100022A1FCF7C9FD48B956F8240000783128E9
:1037200001D1012000E000201D49087055F8240057
:103730001CA1FCF7B9FD48B956F8240000783128DF
:1037400001D1012000E0002017490870641CBC4230
:10375000CCDB1148007818B10020FDF7C9FE02E06B
:103760000020FDF7B9FE0E48007818B10120FDF7E2
:10377000BFFE02E00120FDF7AFFE0B48007818B154
:103780000220FDF7B5FE02E00220FDF7A5FE07A02E
:10379000BDE8F08167000000A00000206F0000007D
:1037A000A100002072000000A20000202F737461AD
:1037B00074652E7368746D6C0000000010B50648C7
:1037C000006800B910BD0448006808F085F90020C1
:1037D0000149086000BFF5E7E402002070B5044627
:1037E00007F0AEFEFFF7EAFF07F0D6FF0E490860CC
:1037F0000846006810B94FF0FF3070BDA2880B4931
:103800000948006807F058FE05461DB1FFF7D6FFCE
:103810002846F2E7002206490348006807F0F6FF51
:10382000044804600020E8E7E4020020D0C100085A
:1038300015B80008E802002070B505460C4608A13E
:103840002846FCF731FD20B107A12846FCF72CFDE6
:1038500020B9084800682060012070BD0020FCE706
:1038600072756E2E73746D007777772E72756E2E6B
:1038700073746D000600002010B50648006800B99A
:1038800010BD0448006808F027F9002001490860CD
:1038900000BFF5E7F00200202DE9F04105460E4695
:1038A000174607F04DFEFFF7E7FF07F075FF0F49DA
:1038B00008600846006818B94FF0FF30BDE8F08195
:1038C000324629460948006807F0F6FD04461CB157
:1038D000FFF7D2FF2046F1E70022054903480068C0
:1038E00007F094FF034807600020E7E7F00200209C
:1038F000EDB90008F40200200246002113E00D4853
:103900000068406901EB810300EB8300D0F80600FA
:10391000904207D107480068406901EB810300EB42
:1039200083007047491C0348006800698842E6DC50
:103930000020F6E7E802002070B50546002414E0F8
:103940000D490968496904EB840201EB82000622F3
:103950002946FCF7B7FC38B907480068406904EB12
:10396000840100EB810070BD641C0348006800699D
:10397000A042E5DC0020F6E7E80200202DE9FC4744
:1039800005468846164600BF1DB900BF00BFBDE80A
:10399000FC8700BF70892A280EDA4E48408C401CF4
:1039A00081B24C484184C08B401C81B24948C183DC
:1039B000304603F059FDEAE7776807F10E042088E6
:1039C000B0F5807F08D12079062805D160790428D8
:1039D00002D1608808280ED03E48008D401C81B27C
:1039E0003C480185C08B401C81B23A48C1833046B7
:1039F00003F03AFDCBE73748408B401C81B2354895
:103A00004183D4F80E000190A0690090281D01D0D8
:103A1000686810B94FF0000907E0009869688842AB
:103A200001D1012000E000208146B9F1000F01D052
:103A3000012000E00220034604F1080201A9284603
:103A400000F002FCE088B0F5807F03D0B0F5007F85
:103A500033D131E0B9F1000F2CD0022002F015FE75
:103A6000E080D4F80E00A0616868C4F80E0000BFC2
:103A700095F82200062801D000BF00BF00BFA06853
:103A8000C4F81200A089E082A0683860A089B880DC
:103A9000D8F80000A060B8F80400A081D8F80000B1
:103AA000C7F80600B8F80400788131462846AA69AC
:103AB000904700E000BF07E006E00648808D401C0C
:103AC00081B20448818500BF00BF304603F0CCFCC2
:103AD00000BF5CE75CA500202DE9FC5F05460F46B2
:103AE0004FF00A08C1460A260024A3460020019090
:103AF000B246009000BF64E004EB84005E4A02EB33
:103B00008000817C0A2E02D109B966B257E00029F3
:103B100055D000BF012903D0022901DA00BF00BF40
:103B200000BF5DB104EB8402534B03EB82022868B3
:103B30005268904202D160B2BDE8FC9F012928D1B1
:103B400004EB84004C4A52F8200088B104EB840056
:103B500002EB8000C27C0098824230DB4FFA84FA8C
:103B600004EB8400444A02EB8000C07C009026E015
:103B700004EB8400404A02EB8000C07C58451EDB09
:103B80004FFA84F804EB840002EB800090F813B045
:103B900015E0022913DB042911DA04EB8400364A0C
:103BA00002EB8000C27C0198824208DB4FFA84F964
:103BB00004EB8400304A02EB8000C07C0190601C62
:103BC000C4B20A2C98DB17F0020F04D10A2E05D1DB
:103BD00017F0010F02D14FF0FF30ADE70A2E01DAE6
:103BE000F4B226E0B9F10A0F0BDA09F0FF0400BFC6
:103BF00004EB8400204951F8200008B100BF00BF49
:103C00000EE0B8F10A0F02DA08F0FF0408E0BAF19A
:103C10000A0F02DA0AF0FF0402E04FF0FF308BE7F0
:103C200000BF0A2C01DB00BF00BF00BF204600F030
:103C300025F800BF0A2C01DB00BF00BF00BF00BF9A
:103C400004EB84000C4901EB8000807C08B100BFCC
:103C500000BF00BF35B104EB8401074A02EB8101CC
:103C600028684860002004EB8401034A02EB8101CC
:103C7000C87460B260E7000084A6002010B5044656
:103C800004EB84000C4951F8200060B104EB84017E
:103C9000094A52F8210003F0E7FB002004EB8401FD
:103CA000054A42F82100002004EB8401024A02EB9D
:103CB0008101887410BD000084A600202DE9FC4716
:103CC00004460F461546A94600BF0CB900BF00BF09
:103CD00000BF00BF0FB900BF00BF00BF00BF0DB9DC
:103CE00000BF00BF00BF0E21384603F01AFC40B1F0
:103CF0004B484089401C4A4948816FF00100BDE8AB
:103D0000FC872146286801F01DFE10B1DFF8148100
:103D10007DE0287800F0F000E02815D101208DF832
:103D2000000000208DF801005E208DF80200687808
:103D300000F07F008DF80300A8788DF80400E87883
:103D40008DF80500E84661E02868A1680840D4E9DC
:103D500001121140884210D0288880B2A0F57E411F
:103D6000A9390AD014F10C0004D0E06810B104F1B4
:103D70000C0902E06FF00300C1E72B48007800EB6C
:103D800080002A4901EB8000807C022818DB26494C
:103D9000097801EB8101254A02EB8101D9F8000085
:103DA000496888420CD11E48C08D401C81B21C4815
:103DB000C1851D4802783946204600F039F89EE753
:103DC00000261BE006EB8600184901EB8000807C92
:103DD000022811DB06EB8601144A02EB8101D9F8B7
:103DE00000004968884207D10F490E70F2B2394687
:103DF000204600F01DF882E7701C46B20A2EE1DB77
:103E00003A464946204600F053F878E700BF43465B
:103E100004F123023946204600F0ACF96FE70000B8
:103E20005CA50020D8C100080202002084A6002062
:103E300070B505460E46144600BF04EB84001B49CE
:103E400001EB8000807C022801DA00BF00BF00BFC8
:103E500004EB8400154901EB8000807C022817D117
:103E600004EB840001EB8000C07CE42810DB04EB51
:103E700084000A4602EB8000011D284600F064F928
:103E800030B9032004EB8401084A02EB81018874F5
:103E900004EB8400054901EB800000F10C0305F1FF
:103EA00023023146284600F065F970BD84A6002043
:103EB0002DE9F05F80460F46164608F123094FF0C2
:103EC000FF3A4146386801F03DFD38B9387800F0D6
:103ED000F000E02802D00FB1386818B96FF00D007B
:103EE000BDE8F09F01213846FFF7F6FD0446002C9F
:103EF00008DA2EB15748808C401C81B25548818425
:103F00002046EDE704EB8400534901EB8000807C00
:103F100030B9012004EB84014F4A02EB810188741F
:103F200000BF04EB84004C4901EB8000807C012839
:103F300008D004EB840001EB8000807C022801DAC9
:103F400000BF00BF00BF04EB8400434901EB8000C9
:103F5000807C012800D03EB93946404600F0F4F894
:103F600082460EB95046BBE700BF0EB900BF00BF86
:103F700000BF04EB8400384901EB8000807C0228FC
:103F80000FDB36490C7004EB8400334901EB8000F1
:103F900000F10C034A463146404600F0EBF88246F9
:103FA00056E004EB84002C4901EB8000807C012862
:103FB0004ED14FF0000B354610E000BF68892989CB
:103FC000884203D1286808B100BF00BF00BF287B2A
:103FD000012802D04FF0010B02E02D68002DECD13A
:103FE00000BFBBF1000F10D029890022032002F08E
:103FF000FFFF05466DB13146284603F076F940B122
:10400000284603F031FA002503E03546284603F040
:104010002DFBA5B104EB84000F4951F8200030B10D
:1040200004EB84010C4A52F8210003F01DFA04EB62
:104030008400094941F820504FF0000A07E0054884
:10404000808C401C81B2034881844FF0FF3A00BF4E
:10405000504645E75CA5002084A60020020200200F
:104060002DE9F84F0746884691469A46DDF828B074
:104070000020009000BF0FB900BF00BF00BF0022AA
:104080002A21032002F0B4FF05464DB92D48808C4B
:10409000401C81B22B4881844FF0FF30BDE8F88F7F
:1040A00000BF68892A2801DA00BF00BF00BF6E6820
:1040B00006F10E040D9802F0E8FAE08000BF97F8D0
:1040C0002200062801D000BF00BF00BFDAF80000C0
:1040D000A060BAF80400A0810B980168C4F812101F
:1040E0008088E082D9F800003060B9F80400B08020
:1040F000D8F80000C6F80600B8F804007081DBF8B4
:104100000000C4F80E000C980068A0614FF48070A5
:1041100020800820608006202071042060714FF408
:10412000C160B08129463846BA6990470090054879
:10413000008B401C03490883284603F095F90025AD
:104140000098ABE75CA500207FB504460D46012131
:10415000064A201D04F123038DE825000391044A3B
:1041600019462046FFF77CFF04B070BDDEC1000891
:10417000D8C100082DE9F04104460E46174698467E
:10418000756800BF94F82200062801D000BF00BF68
:1041900000BFD8F800002860B8F80400A88038688C
:1041A000C5F80600B88868810820A88131462046F5
:1041B000A2699047BDE8F08170B500243FE004EBB0
:1041C0008400204901EB8000857C35B3042D34D078
:1041D00004EB840001EB8000C07C401C04EB8401F4
:1041E000184A02EB8101C87404EB8400114601EB0C
:1041F0008000C07CF0280DDA04EB840001EB800025
:10420000807C01280AD104EB840001EB8000C07C93
:10421000022803DB2046FFF731FD0EE004EB8400AB
:10422000084901EB8000807C032806D1022004EBC2
:104230008401044A02EB81018874601CC4B20A2C18
:10424000BDDB70BD84A600202DE9F04706460D4673
:104250001746984600BF96F82200062801D000BFF6
:1042600000BF00BF5DB1286848B13146286801F041
:1042700069FB20B9287800F0F000E02803D16FF046
:104280000D00BDE8F08741462846FFF725FC0446AF
:10429000002C01DA2046F4E718F0040F07D00420C0
:1042A00004EB84011E4A02EB8101887406E00220BF
:1042B00004EB84011A4A02EB8101887404EB840048
:1042C000174901EB8000866004EB840001EB80005D
:1042D0003968C160B9880182002004EB8401104A6A
:1042E00002EB8101C87404EB8400114651F82000F0
:1042F00098B104EB840051F82090002004EB840175
:1043000042F821003B4606F1230249463046FFF7BA
:1043100031FF484603F0A8F800BF0020B1E70000D5
:1043200084A600202DE9F04104460E464FF00E0809
:1043300060890E280BDC3448008D401C81B2324865
:104340000185C08B401C81B22F48C18356E065684F
:10435000AF89287810F0010F16D02878012809D1EC
:10436000687888B9A8785E280ED1607B40F010008C
:10437000607309E0062225492846FBF7A3FF18B918
:10438000607B40F008006073082F03D0B7F5C16F61
:1043900024D116E096F8290010F0200F00D12DE06E
:1043A000C8F1000001B2204603F0BBF820B100BF05
:1043B00000BF00BF00BF21E03146204601F0DEFB18
:1043C00018E096F8290010F0200F00D116E02246E0
:1043D00006F123013046FFF7D1FA0BE00A48008DC1
:1043E000401C81B208480185C08B401C81B2064840
:1043F000C18303E000BF0020BDE8F081204603F048
:1044000033F80020F8E700005CA50020D8C10008C0
:104410002DE9F04180460E460EB1307810B90020EB
:10442000BDE8F081344600252BE008F1300040F86B
:104430002540274626212046FBF725FF04461CB1D0
:1044400000202070641C08E020213846FBF71BFF89
:1044500004460CB10020207000243D213846FBF7B3
:1044600012FF07463FB100203870781C08F1700138
:1044700041F8250004E0002108F1700040F8251003
:104480006D1C102D01DA002CCFD12846C8E72DE98C
:10449000F05F05468A4616469846DDF830B00A9F1A
:1044A0002C46352004F8010B012004F8010B04F818
:1044B00001AB362004F8010B042004F8010B0B9823
:1044C0002060241D332004F8010B042004F8010BA4
:1044D000380E04F8010B380C04F8010B380A04F804
:1044E000010B04F8017B012004F8010B042004F8FF
:1044F000010B0D982060241DBBF1000F08D0032094
:1045000004F8010B042004F8010BC4F800B0241DCA
:104510007EB13046FBF7C1FE81460F2004F8010B47
:1045200004F8019B4A4631462046FBF776FE4C4490
:1045300000BFB8F1000F08D0062004F8010B0420DA
:1045400004F8010BC4F80080241DFF2004F8010BBF
:10455000601BBDE8F09F30B503460C4600210EE01D
:10456000481C185C0844851CA54201DD002030BDB4
:10457000585C904201D15818F9E7294600BF481C01
:10458000A042EDDB0020F2E70146D1E90102801AEA
:104590007047704770B505460E4605B116B96FF005
:1045A0000D0070BD0B4C11E030466168FBF77CFEDE
:1045B00058B9A0682860E0686860E068A8600020DA
:1045C000E860207C28740020EBE72468002CEBD105
:1045D000A01FE6E7885201082DE9F041074600BF19
:1045E0000FB900BF00BF00BFFC6A00BF0CB900BF1D
:1045F00000BF00BF2E480068F8B12E480068E0B147
:104600002D480068C8B1002513E02A48006850F81A
:10461000251004F11500FBF747FE48B9C02204F14C
:104620001E012846224B1B6898476082BDE8F08136
:104630006D1C214800688542E7DB04F11500FBF79B
:104640002CFEA72804D204F11500FBF726FE00E09B
:10465000A7200646122219A104F11E00FBF7DDFD7A
:10466000324604F1150104F13000FBF7D6FD06F1E6
:10467000120004F11E01084415A10A6802608A882C
:10468000828089798171002206F1190004F11E01EE
:104690000A540846FBF701FE064600BFB6F5803F08
:1046A00001D300BF00BF00BF668200BFBEE70000AD
:1046B000F802002000030020FC0200203C623E2A99
:1046C0002A2A554E4B4E4F574E205441472000004A
:1046D0002A2A2A3C2F623E0070B506460D46344613
:1046E0002C2D00D270BD2068012802D16068A8423C
:1046F00000D0F7E7A0680830E1680844A84205D078
:104700000B48C068401C0A49C860EBE7084840688D
:10471000401C074948600748006838B1D4E90221C5
:104720000832054BD018034A1268904700BFD9E7FA
:104730004CA70020080200209CA700202DE9F04192
:1047400006460D469046374600BF387E012801D008
:1047500000BF00BF00BF0121284606F014F900F099
:1047600006FE04461CB94FF0FF30BDE8F081E5615C
:104770002146284603F056FC0949284605F050FF1B
:104780000849284603F0D4FE04220749284604F0CD
:10479000B3FE0649284606F0EDF80020E5E70000E4
:1047A000874C000875480008354C0008BD520008C9
:1047B00070B505460C46606928B92146284600F0C8
:1047C00051F8002070BD6069FFF7DEFE002805DCAF
:1047D0002146284600F046F80020F3E700BF00BF5E
:1047E00000BF00BF0120EDE770B504460D46002272
:1047F0002946204600F002F870BD00002DE9F04186
:1048000007460C4616460021384603F00BFC0021F3
:10481000384605F005FF0021384603F089FE0022E6
:104820001146384604F068FE0021384606F0A2F82A
:1048300014B1204600F0B7FD2EB1384603F06AFBF4
:104840000020BDE8F081384603F03CFC054625B168
:1048500004220349384604F04FFE2846F1E70000E1
:10486000354C000870B504460D4629462046FFF732
:10487000BBFF70BD70B504460E46254615B12846EF
:1048800000F091FD70BD00002DE9F74F82B00746A2
:1048900092464FF00009CB46039800782F2828D184
:1048A0000398407828BB002415E0434850F83410A2
:1048B0003846FFF76FFE80463F4850F834000390BB
:1048C000B8F1000F06D1B9463B4800EBC40090F8A0
:1048D00004B002E0641C052CE7D300BFB9F1000F5F
:1048E0005ED103A9384600F06FF881464FF0000B07
:1048F00056E03F210398FBF7C6FC054615B10020A2
:1049000028706D1C2D48006830B32D48006818B31E
:1049100000261CE02A48006850F836100398FBF780
:10492000C3FC98B929463846FFF772FD0190244828
:10493000006800EBC60007F1700307F13002D0F801
:1049400004C030460199E047039004E0761C1B4800
:1049500000688642DEDB00BF38460399FFF71AFE87
:104960008046B8F1000F01D1B94604E003A93846EA
:1049700000F02AF88146B9F1000F11D04FF0000B7A
:1049800000240AE00F4850F824100398FBF769FC54
:1049900010B14FF0010B02E0641C042CF2D300BFF5
:1049A000CDF800B0524649463846039B00F03EF829
:1049B00005B0BDE8F08F0000AC52010808030020EC
:1049C000040300209C52010870B506460C460EA058
:1049D000206030462168FFF7DDFD054695B10DA04A
:1049E000206030462168FFF7D5FD054655B10CA083
:1049F000206030462168FFF7CDFD054615B1002047
:104A0000206070BD3046FCE72F3430342E68746D62
:104A10006C0000002F3430342E68746D00000000EC
:104A20002F3430342E7368746D6C00002DE9F0471C
:104A300004460D4617469946DDF82080002D3ED0ED
:104A4000B8F1000F0FD000F07FFC064656B10020F1
:104A5000308286F8DF00286830606868F060286877
:104A6000B060E66200BF65612868A06100BF686849
:104A7000002801DA00BF00BF00BF68686062002044
:104A800084F8280000BF6069007C08B900BF00BF3F
:104A900000BF6069007CC0B1BFB10DA1626AA069AE
:104AA00003F050F906464EB1311DA269881AA1697A
:104AB0000144A161616A091A616200BF05E000203A
:104AC0006061A061606284F828000020BDE8F08782
:104AD0000D0A0D0A000000002DE9F74F84B00C46C6
:104AE0000498D0F8008000BFB8F1000F01D100BFDA
:104AF00000BF00BF00BF0CB900BF00BF00BF6069AE
:104B000008B9A06920B16FF0070007B0BDE8F08FC9
:104B1000206A10B9C4F8208003E04146206A02F000
:104B2000A8FB206A006898B1206A008940F2FF3132
:104B3000884202DA206A008901E040F2FF308146B3
:104B400000234A463449206A02F041FC324E04E018
:104B5000D8F80460B8F80A9000BFB9F1070F49DB34
:104B60004A462EA1304603F0EDF88246BAF1000F16
:104B700040D000200390042229A13046FBF7AFFB70
:104B800008B9F51C04E0002030716FF00D00BCE79F
:104B9000681C801BA9EB000080B2029022A1681C57
:104BA000029A03F0CFF807463FB91CA1681C029A8D
:104BB00003F0C8F8074601200390681C381A80B239
:104BC0000190B7B1AF4214D94A4618A1304603F05C
:104BD000B9F868B1681C0090002028700022DDE957
:104BE000000142542046039A0099FFF74DFE8CE7DE
:104BF00000BF00BF206A02F06FFB8346206A008975
:104C0000B0F5806F05DABBF1050F02DC6FF0040030
:104C10007BE76FF00D0078E7F4B000200D0A00008C
:104C20004745542000000000200000000D0A0D0A36
:104C3000000000002DE9F04105460E462C463CB927
:104C400000213046FFF7D0FD07460020BDE8F08187
:104C500014F8280F401C207014F82809042805D1E6
:104C600021463046FFF7C0FD0020EFE74CB16069F8
:104C700038B12146304600F056F810B1304604F005
:104C80007DF90020E2E72DE9FF4107460E469846F0
:104C90006FF009043D46B8F1000F02D1029800B14F
:104CA0008DB9029838B102980189304605F0D9FCD7
:104CB000029802F0D9FB29463046FFF795FD002007
:104CC00004B0BDE8F08102980189304605F0C9FCC6
:104CD000686980B93246294602A8FFF7FDFE0446FE
:104CE00000BF3CB1601D05D0093003D0801F01D04A
:104CF00000BF00BF00BF601D06D0286A20B1286A2F
:104D000002F0B2FB0020286224B92946304600F0A8
:104D10000AF806E014F10E0003D129463046FFF7E9
:104D200063FD0020CCE770B505460C4600260CB9A3
:104D3000002070BD606A30B921462846FFF738FD73
:104D400008B90020F5E7E06A28B12146284600F0BE
:104D50005FF8064604E02146284600F010F80646B3
:104D6000606A50B96069FFF70FFC002805DC214636
:104D70002846FFF777FD0020DBE73046D9E72DE92D
:104D8000F84305460C464FF00008B5F86600616A26
:104D9000884203D2B5F8660000900BE0A08C80B288
:104DA000009000BFBDF80010606A884201D000BFCB
:104DB00000BF00BFA87F10F0080F02D0E88E0C38AB
:104DC00000E0E88E87B27800BDF80010884202DA71
:104DD0007804000C0090E06A08B1012000E0002097
:104DE00003466A462846A16900F0EEFA06465EB917
:104DF0004FF00108BDF80010A0690844A061BDF89B
:104E00000010606A401A60624046BDE8F883000006
:104E10002DE9F84306460D460027B946EC6A00BF67
:104E20000CB900BF00BF00BFB6F866000090206854
:104E3000A96988424CD92068A969401AB6F8661059
:104E4000884203DDB6F8660000900EE000BF2068DF
:104E5000A969401AB0F5803F01DB00BF00BF00BF69
:104E60002088298B401A80B20090B07F10F0080F84
:104E700002D0F08E0C3800E0F08E1FFA80F84FEA76
:104E80004800BDF80010884203DA4FEA4840000CA1
:104E90000090E86A08B1012000E0002003466A465D
:104EA0003046A96900F090FA07465FB94FF0010952
:104EB000BDF80010A8690844A861BDF80010686A30
:104EC000401A6862B6F8660010B94846BDE8F88333
:104ED00095E1BDF8000008B94846F7E794F8DF000F
:104EE000052817D2DFE800F0031736A0FD00206880
:104EF0000078F04909680978884205D1012084F8D2
:104F0000DF00208220686060E068401EE06020686A
:104F1000401C206072E1208A052805D100202082F3
:104F2000022084F8DF0014E020680078218AE14A3A
:104F30001268515C884203D1208A401C208202E022
:104F4000002084F8DF00E068401EE0602068401C1C
:104F5000206053E1208AB0B92068007820280BD067
:104F600020680078092807D0206800780A2803D034
:104F7000206800780D2806D1E068401EE0602068B7
:104F8000401C20603AE120680078CB490968097824
:104F900088420FD02068007820280BD02068007845
:104FA000092807D0206800780A2803D020680078F4
:104FB0000D2823D1208A18B9002084F8DF002CE0C6
:104FC000032084F8DF0000BF208AFF2801DD00BF36
:104FD00000BF00BF207C20750021228A04F115004B
:104FE000815420680078B44909680978884202D160
:104FF0000120208211E0002020820EE0208A082873
:1050000008DA20680178228A501C208204F11500F9
:10501000815402E0002084F8DF00E068401EE06078
:105020002068401C2060E9E0208AB0B92068007840
:1050300020280BD020680078092807D02068007845
:105040000A2803D0206800780D2806D1E068401EA9
:10505000E0602068401C2060D0E020680078218A51
:10506000954A1268515C884250D1E068401EE06069
:105070002068401C2060208A022843D12846FFF780
:10508000ABFA00202082042084F8DF002068A060B2
:1050900060682060A068A969884240D96068A969F1
:1050A000401ABDF80010884204DAA088298B401A03
:1050B00080B20090E86A08B1012000E000200346B9
:1050C0006A463046A96900F07FF907463FBB4FF0BA
:1050D00001096068A969884209D82089A188401A15
:1050E00000E01DE0BDF80010084480B20090BDF85B
:1050F0000010A8690844A861BDF80010686A401A49
:1051000068620CE0208A401C208208E0E068401EB3
:10511000E0602068401C2060002084F8DF006DE023
:10512000A068A96988423ED900BF6068A969884221
:1051300001D200BF00BF00BF6068A969401ABDF876
:105140000010884204DAA088298B401A80B20090AF
:10515000BDF8000060B1E86A08B1012000E000205D
:1051600003466A463046A96900F02EF9074600E07A
:105170000027DFBB4FF001096068A969884207D8A2
:105180002089A188401ABDF80010084480B2009020
:10519000BDF80010A8690844A861BDF80010686A4D
:1051A000401A68622AE0208A618A88421FDA608A8F
:1051B000218A401ABDF80010884204DA608A218AE8
:1051C000401A80B20090228A04F11E0011180123B7
:1051D0006A46304600F0F8F8074677B94FF0010903
:1051E000208ABDF800100844208206E006E0002076
:1051F000208284F8DF00A068206000BF00BFE06864
:1052000010B1002F3FF465AE94F8DF0004284ED0B3
:105210002068A96988424AD92068A969401AB6F865
:105220006610884203DDB6F8660000900EE000BF0D
:105230002068A969401AB0F5803F01DB00BF00BFBC
:1052400000BF2088298B401A80B20090B07F10F0F8
:10525000080F02D0F08E0C3800E0F08E4000BDF850
:10526000001088420ADAB07F10F0080F02D0F08EEA
:105270000C3800E0F08E4004000C0090E86A08B1A1
:10528000012000E0002003466A463046A96900F08C
:105290009BF807465FB94FF00109BDF80010A869F7
:1052A0000844A861BDF80010686A401A6862484660
:1052B0000CE60000D4520108D85201082DE9F04153
:1052C00004460E461746254615B90020BDE8F08174
:1052D000002085F8280029463046FFF724FD0020ED
:1052E000F4E7000000BF08B900BF00BF00BF00BF67
:1052F000002901DC00BF00BF00BF024A1060024A63
:1053000011607047040300200803002000BF08B9A3
:1053100000BF00BF00BF00BF09B900BF00BF00BF92
:1053200000BF002A01DC00BF00BF00BF034B1860B4
:10533000034B1960034B1A6070470000F80200200D
:1053400000030020FC02002010B5E02001F0AEFABE
:1053500004461CB1E0212046FAF778FF204610BD34
:1053600010B5044614B1204601F018FA10BD10B56E
:10537000B02001F09BFA044614B1204600F01DF85D
:10538000204610BD10B50446606920B16069FFF782
:1053900000F900206061E06A20B1E06AFFF7E0FFF9
:1053A0000020E06210BD10B504462CB12046FFF786
:1053B000E9FF204601F0F2F910BD10B50446B02116
:1053C0002046FAF743FF10BD2DE9F047074688460F
:1053D0001546994600BF0DB900BF00BF00BF2C881D
:1053E00014B90020BDE8F08700BF4B462246414675
:1053F000384605F061FD0646701C0DD1B7F8660011
:1054000018B1B7F86800082801DB012404E0204641
:1054100004EBD071C1F34F04701C01D1012CE4DC0A
:105420002C803046DEE7000010B5024800F004F89A
:1054300010BD0000D0C1000870B5064603F00EFD97
:10544000044600BF0CB900BF00BF00BF01212046C9
:1054500005F099FA50223146204602F0E5FD054656
:1054600000BF0DB100BF00BF00BFFF21204603F009
:1054700087FC044600BF0CB900BF00BF00BF214637
:10548000204602F0CFFD0249204602F04AFD70BDE1
:105490003D47000870B505460C46224603212846C4
:1054A00000F012F970BD00002DE9FE4F0446894658
:1054B0008248B0F86200401C81B28048A0F86210B7
:1054C0006668307800074FEA9068C8F1000120460E
:1054D00002F027F810B92089042800D2D5E06068CE
:1054E00090F800A0BAF1000F03D0BAF1080F6AD10A
:1054F00000E0C5E001277248007800F0F000E028E5
:1055000000D100276E490868494600F01BFA00B137
:10551000002767B96948B0F87400401C81B2674839
:10552000A0F87410204601F09FFFBDE8FE8F20898F
:10553000082800D2A9E0204600F01FF958B1204603
:1055400001F092FF5D48B0F86800401C81B25B48F2
:10555000A0F86810E9E72221204601F0E2FF88B3B5
:105560004146204601F0DDFF20B100BF00BF00BF73
:1055700000BF96E021890022022001F039FD074694
:1055800007B98EE000BF798908F10800814201D295
:1055900000BF00BF00BF2146384601F0A6FE20B183
:1055A00000BF00BF00BF00BF7BE07E68C8F1000005
:1055B00001B2384601F0B5FF30B100BF00BF00BFF7
:1055C00000BF6EE005E04BE0204601F04DFF3C4699
:1055D0000AE06FF02101204601F0A3FF20B100BFD7
:1055E00000BF00BF00BF5CE0656835480068F06040
:1055F0003448006830610020287068884FF6F771E1
:10560000884203D368880930688002E068880830DF
:105610006880FF203072002070811421304600F035
:10562000A2F870812548B0F86000401C2349A1F819
:1056300060004146204601F074FF18B100BF00BF72
:1056400000BF0CE001200021FF230A46CDE901093B
:1056500000911B49204600F0F3FB074600BF0FE016
:105660001648B0F87000401C81B21448A0F87010C1
:10567000B0F86600401C81B21048A0F8661000BF68
:1056800000BF204601F0F0FE4FE7204601F0ECFE9F
:105690000A48B0F86A00401C81B20848A0F86A10B5
:1056A00043E7204601F0E0FE0448B0F87400401CD7
:1056B00081B20248A0F8741000BF36E75CA5002054
:1056C000F4010020F00100202DE9FE4306460F46BC
:1056D000904600222421012001F08AFC05460DB9E4
:1056E000BDE8FE8300BF6889242801D200BF00BF47
:1056F00000BFD6F804906C68277084F80180002001
:10570000A080E08071686A6802F108001C22FAF744
:1057100084FD002060806989204600F024F86080C4
:105720000B48B0F86000401C0949A1F86000D9F8A6
:105730000C00029001200021FF2302AACDE90010F5
:10574000284600F051FB284601F08EFE00BFC7E757
:105750005CA5002070B505460C4622460B21284664
:10576000FFF7B2FF70BD70B504460D4629462046CE
:1057700000F0ADFFC04380B270BD2DE9F041064698
:1057800000240027354617E06989686800F09FFF0C
:105790000444A0B200EB1444688900EBD0714910B6
:1057A000B0EB410107D0C7F10100C7B2E0B2C4F3CA
:1057B000072141EA00242D68002DE5D127B1E0B290
:1057C000C4F3072141EA0024E04380B2BDE8F08140
:1057D0002DE9F05F0746884691469A460024A34685
:1057E0003D4618E06989686800F071FF0444A0B282
:1057F00000EB1444688900EBD0714910B0EB410113
:1058000008D0CBF1010000F0FF0BE0B2C4F3072198
:1058100041EA00242D68002DE4D1BBF1000F04D033
:10582000E0B2C4F3072141EA0024D8F80060B0B226
:1058300004444FF6FF7000EA16400444D9F80060B3
:10584000B0B204444FF6FF7000EA164004445046DC
:1058500000F01BFF04440A9800F017FF0444A0B2B4
:1058600000EB1444A0B200EB1444E04380B2BDE866
:10587000F09F00003EB5124C00F00DFF062084F8AA
:10588000220010480168C4F823108088A4F827007B
:105890000D480E4900220E4BCDE9002102900D4A21
:1058A0000D49204601F07EFA0446204601F0E8FA50
:1058B0000A4802F035FA0A4802F032FA3EBD00000A
:1058C000F00E0020000000207D5B00081D6E000827
:1058D0000E0000200A0000200600002084000020A6
:1058E0006C00002008B505F0B3FD0F480F4B104ABF
:1058F000012100900F48FCF7DEF90F480F490860BE
:1059000000210846FBF710FE0120FBF7BFFD002039
:10591000FBF7BCFD0220FBF7B9FD0320FBF7B6FD4A
:105920000748FBF72FFB08BD140100201C020020D4
:10593000A8020020FC0800201D6F000808020020BB
:10594000BC00002018B502460092D04300D00AB92E
:10595000012018BD91F8290010F0020F01D100209C
:10596000F7E74868904201D10020F2E700988B6881
:105970001840D1E901342340984208D1886822EACE
:1059800000008C68E343984201D10120E1E7002048
:10599000DFE700002DE9F74F8CB004468946B9F8DF
:1059A00020000890142004904FF0000860680B90CD
:1059B0000B9EF08800F085FE03900398C0F30C0066
:1059C0000790039800F4005006902089143880B2A4
:1059D00009900899A1F11400C11700EB5171C1F3AE
:1059E000CF010A91AEE0089814380999884201DB8A
:1059F000012000E0002005900798C0F30C000699F4
:105A000008430390059818B9039840F40050039098
:105A1000059808B1099801E00A98C0001FFA80FBB8
:105A200000221421022001F0E3FA054625B94FF0C7
:105A3000FF300FB0BDE8F08F00BF6089142801DA95
:105A400000BF00BF00BF142268680B99FAF7E5FB9E
:105A50006E68616804980844606061890498081A57
:105A60006081CDF808B03FE061890298814201DD94
:105A7000029800E060898046B8F1000F01D12468E7
:105A800032E000F069F807462FB9284601F0ECFC37
:105A90004FF0FF30CDE760683B4602224146CDE93A
:105AA0000008032001F0ADFB8246BAF1000F08D1D7
:105AB000384600F056F8284601F0D6FC4FF0FF308B
:105AC000B7E7204601F0D2FD7C612148386151469C
:105AD000284601F0CEFB0298A0EB080080B20290AD
